{
  "contractName": "Destroyable",
  "abi": [
    {
      "constant": true,
      "inputs": [],
      "name": "owner",
      "outputs": [
        {
          "name": "",
          "type": "address"
        }
      ],
      "payable": false,
      "stateMutability": "view",
      "type": "function"
    },
    {
      "constant": false,
      "inputs": [],
      "name": "destroy",
      "outputs": [],
      "payable": false,
      "stateMutability": "nonpayable",
      "type": "function"
    }
  ],
  "bytecode": "0x608060405260008054600160a060020a033316600160a060020a0319909116179055610126806100306000396000f30060806040526004361060485763ffffffff7c010000000000000000000000000000000000000000000000000000000060003504166383197ef08114604d5780638da5cb5b146061575b600080fd5b348015605857600080fd5b50605f609c565b005b348015606c57600080fd5b50607360de565b6040805173ffffffffffffffffffffffffffffffffffffffff9092168252519081900360200190f35b6000543373ffffffffffffffffffffffffffffffffffffffff90811691161460c357600080fd5b60005473ffffffffffffffffffffffffffffffffffffffff16ff5b60005473ffffffffffffffffffffffffffffffffffffffff16815600a165627a7a72305820dc7fae20e8f7e19234fe1d4422d90aadb36ed7fc1d47c2a7d066b0b8352e896d0029",
  "source": "pragma solidity ^0.4.4;\nimport \"./Ownable.sol\";\ncontract Destroyable is Ownable {\n\n    function destroy() onlyOwner public {\n        selfdestruct(owner);\n    }\n}",
  "sourcePath": "/root/IdeaProjects/Project1/contracts/Destroyable.sol",
  "compiler": {
    "name": "solc",
    "version": "0.4.23+commit.124ca40d.Emscripten.clang"
  },
  "schemaVersion": "2.0.0",
  "updatedAt": "2018-05-11T13:15:54.305Z"
}