{
  "contractName": "Splitter",
  "abi": [
    {
      "constant": false,
      "inputs": [],
      "name": "stopContract",
      "outputs": [
        {
          "name": "success",
          "type": "bool"
        }
      ],
      "payable": false,
      "stateMutability": "nonpayable",
      "type": "function"
    },
    {
      "constant": true,
      "inputs": [],
      "name": "secondAddress",
      "outputs": [
        {
          "name": "",
          "type": "address"
        }
      ],
      "payable": false,
      "stateMutability": "view",
      "type": "function"
    },
    {
      "constant": false,
      "inputs": [],
      "name": "destroy",
      "outputs": [],
      "payable": false,
      "stateMutability": "nonpayable",
      "type": "function"
    },
    {
      "constant": true,
      "inputs": [],
      "name": "owner",
      "outputs": [
        {
          "name": "",
          "type": "address"
        }
      ],
      "payable": false,
      "stateMutability": "view",
      "type": "function"
    },
    {
      "constant": true,
      "inputs": [],
      "name": "ownerAddress",
      "outputs": [
        {
          "name": "",
          "type": "address"
        }
      ],
      "payable": false,
      "stateMutability": "view",
      "type": "function"
    },
    {
      "constant": true,
      "inputs": [],
      "name": "thirdAddress",
      "outputs": [
        {
          "name": "",
          "type": "address"
        }
      ],
      "payable": false,
      "stateMutability": "view",
      "type": "function"
    },
    {
      "inputs": [
        {
          "name": "address1",
          "type": "address"
        },
        {
          "name": "address2",
          "type": "address"
        },
        {
          "name": "address3",
          "type": "address"
        }
      ],
      "payable": false,
      "stateMutability": "nonpayable",
      "type": "constructor"
    },
    {
      "anonymous": false,
      "inputs": [
        {
          "indexed": false,
          "name": "",
          "type": "uint256"
        }
      ],
      "name": "LogSendMoneyToFirstAcc",
      "type": "event"
    },
    {
      "anonymous": false,
      "inputs": [
        {
          "indexed": false,
          "name": "",
          "type": "uint256"
        }
      ],
      "name": "LogSendMoneyToSecondAcc",
      "type": "event"
    },
    {
      "anonymous": false,
      "inputs": [
        {
          "indexed": false,
          "name": "",
          "type": "uint256"
        }
      ],
      "name": "LogSendMoneyToThirdAcc",
      "type": "event"
    },
    {
      "anonymous": false,
      "inputs": [
        {
          "indexed": false,
          "name": "",
          "type": "uint256"
        }
      ],
      "name": "LogCurrentAmount",
      "type": "event"
    },
    {
      "anonymous": false,
      "inputs": [
        {
          "indexed": false,
          "name": "",
          "type": "uint256"
        }
      ],
      "name": "Sum",
      "type": "event"
    },
    {
      "anonymous": false,
      "inputs": [
        {
          "indexed": false,
          "name": "",
          "type": "bool"
        }
      ],
      "name": "LogStopContract",
      "type": "event"
    },
    {
      "constant": false,
      "inputs": [],
      "name": "payMoney",
      "outputs": [
        {
          "name": "",
          "type": "bool"
        }
      ],
      "payable": true,
      "stateMutability": "payable",
      "type": "function"
    },
    {
      "constant": false,
      "inputs": [
        {
          "name": "tempSum",
          "type": "uint256"
        }
      ],
      "name": "divideMoney",
      "outputs": [
        {
          "name": "",
          "type": "uint256"
        }
      ],
      "payable": true,
      "stateMutability": "payable",
      "type": "function"
    },
    {
      "constant": false,
      "inputs": [],
      "name": "split",
      "outputs": [
        {
          "name": "",
          "type": "bool"
        }
      ],
      "payable": false,
      "stateMutability": "nonpayable",
      "type": "function"
    }
  ],
  "bytecode": "0x60806040526000805460a060020a60ff021916905534801561002057600080fd5b5060405160608061065f83398101604090815281516020830151919092015160008054600160a060020a03191633600160a060020a03908116919091179091558316151561006d57600080fd5b600160a060020a038216151561008257600080fd5b600160a060020a038116151561009757600080fd5b60018054600160a060020a03948516600160a060020a03199182161790915560028054938516938216939093179092556003805491909316911617905561057c806100e36000396000f3006080604052600436106100985763ffffffff7c010000000000000000000000000000000000000000000000000000000060003504166312253a6c811461009d5780631dc1c5e3146100c65780634ad07495146100ce578063725be546146100eb57806383197ef01461011c5780638da5cb5b146101335780638f84aa0914610148578063a1045d731461015d578063f765417614610172575b600080fd5b3480156100a957600080fd5b506100b2610187565b604080519115158252519081900360200190f35b6100b261023a565b6100d9600435610265565b60408051918252519081900360200190f35b3480156100f757600080fd5b506101006102a9565b60408051600160a060020a039092168252519081900360200190f35b34801561012857600080fd5b506101316102b8565b005b34801561013f57600080fd5b506101006102e1565b34801561015457600080fd5b506101006102f0565b34801561016957600080fd5b506101006102ff565b34801561017e57600080fd5b506100b261030e565b6000805433600160a060020a039081169116146101a357600080fd5b60005474010000000000000000000000000000000000000000900460ff16156101cb57600080fd5b604080516001815290517fad669115a73c70d2693168fec4c9ac2260d06f00decb18da63f459de6290285e9181900360200190a1506000805474ff0000000000000000000000000000000000000000191674010000000000000000000000000000000000000000179055600190565b600034811061024857600080fd5b34600160a060020a03331631101561025f57600080fd5b50600190565b6040805182815290516000917fbe8396be439ff63ba2ec3820c0c8b49f52bbce98f8dea95fc95e13f224cc35e1919081900360200190a15060029004600481905590565b600254600160a060020a031681565b60005433600160a060020a039081169116146102d357600080fd5b600054600160a060020a0316ff5b600054600160a060020a031681565b600154600160a060020a031681565b600354600160a060020a031681565b6000805474010000000000000000000000000000000000000000900460ff161561033757600080fd5b61034a30600160a060020a031631610265565b5060045460408051918252517f2b2652f5ff8127fab6546b40146137c277bbf2402e6792bd20bf74277a1b69849181900360200190a160015433600160a060020a03908116911614156103b4576103a26004546103f4565b506103ae60045461046e565b5061025f565b60025433600160a060020a03908116911614156103d6576103a26004546104df565b6103e16004546104df565b506103ed6004546103f4565b5050600190565b6040805182815290516000917f9a2e95a34018e539cba419cf7e58c226056e0bb89eb770d16ba16b653396eb0f919081900360200190a1600254604051600160a060020a039091169083156108fc029084906000818181858888f19350505050158015610465573d6000803e3d6000fd5b50600192915050565b6040805182815290516000917fdc37f7c60147e13b5cba2a1ae1aaad4454ef1f798bcfcc9e934b102d461ce85d919081900360200190a1600354604051600160a060020a039091169083156108fc029084906000818181858888f19350505050158015610465573d6000803e3d6000fd5b6040805182815290516000917f8d9c62d4ef8acbab06e17a3b8a10d391c50d8e43a33ec7f0c3bac5c51832980f919081900360200190a1600154604051600160a060020a039091169083156108fc029084906000818181858888f19350505050158015610465573d6000803e3d6000fd00a165627a7a723058200b74c531f7df6957d319b0ae030f301d8bf295c04bf85138867ef0c64e06b9050029",
  "source": "pragma solidity ^0.4.4;\n\nimport './Destroyable.sol';\nimport './Stoppable.sol';\n\ncontract Splitter is Destroyable, Stoppable {\n\n\n    address public ownerAddress;\n    address public secondAddress;\n    address public thirdAddress;\n    uint private amount;\n\n    event LogSendMoneyToFirstAcc(uint);\n    event LogSendMoneyToSecondAcc(uint);\n    event LogSendMoneyToThirdAcc(uint);\n    event LogCurrentAmount(uint);\n\nconstructor(address address1,address address2, address address3)  {\nrequire(address1 != 0);\nrequire(address2 != 0);\nrequire(address3 != 0);\n\nownerAddress = address1;\nsecondAddress = address2;\nthirdAddress = address3;\n}\n\nfunction sendMoneyToFirstAcc(uint money)private returns (bool){\nLogSendMoneyToFirstAcc(money);\nownerAddress.transfer(money);\n\nreturn true;\n}\n\nfunction sendMoneyToSecAcc(uint money)private returns (bool){\nLogSendMoneyToSecondAcc(money);\nsecondAddress.transfer(money);\nreturn true;\n}\n\nfunction sendMoneyToThirdAcc(uint money)private returns (bool){\nLogSendMoneyToThirdAcc(money);\nthirdAddress.transfer(money);\nreturn true;\n}\n\n\n\nfunction payMoney () public payable returns (bool) {\nrequire(msg.value > 0); //avoid 0 value transfers\nrequire(msg.sender.balance >= msg.value); //avoid overspending\nreturn true;\n}\nevent Sum(uint);\nfunction divideMoney(uint tempSum) public payable returns (uint) {\nSum(tempSum);\namount = tempSum / 2 ;\nreturn amount;\n}\n\n\nfunction split () onlyIfRunning public   returns (bool) {\ndivideMoney(this.balance);\nLogCurrentAmount(amount);\nif (msg.sender == ownerAddress){\nsendMoneyToSecAcc(amount);\nsendMoneyToThirdAcc(amount);\n}else if (msg.sender == secondAddress){\nsendMoneyToFirstAcc(amount);\nsendMoneyToThirdAcc(amount);\n}else {\nsendMoneyToFirstAcc(amount);\nsendMoneyToSecAcc(amount);\n}\nreturn true;\n}\n}",
  "sourcePath": "/root/IdeaProjects/Project1/contracts/Splitter.sol",
  "compiler": {
    "name": "solc",
    "version": "0.4.23+commit.124ca40d.Emscripten.clang"
  },
  "schemaVersion": "2.0.0",
  "updatedAt": "2018-05-30T15:52:47.644Z"
}