{
  "contractName": "Splitter",
  "abi": [
    {
      "constant": false,
      "inputs": [],
      "name": "destroy",
      "outputs": [],
      "payable": false,
      "stateMutability": "nonpayable",
      "type": "function"
    },
    {
      "constant": true,
      "inputs": [],
      "name": "owner",
      "outputs": [
        {
          "name": "",
          "type": "address"
        }
      ],
      "payable": false,
      "stateMutability": "view",
      "type": "function"
    },
    {
      "inputs": [
        {
          "name": "address1",
          "type": "address"
        },
        {
          "name": "address2",
          "type": "address"
        },
        {
          "name": "address3",
          "type": "address"
        }
      ],
      "payable": false,
      "stateMutability": "nonpayable",
      "type": "constructor"
    },
    {
      "anonymous": false,
      "inputs": [
        {
          "indexed": false,
          "name": "",
          "type": "uint256"
        }
      ],
      "name": "SendMoneyToFirstAcc",
      "type": "event"
    },
    {
      "anonymous": false,
      "inputs": [
        {
          "indexed": false,
          "name": "",
          "type": "uint256"
        }
      ],
      "name": "SendMoneyToSecondAcc",
      "type": "event"
    },
    {
      "anonymous": false,
      "inputs": [
        {
          "indexed": false,
          "name": "",
          "type": "uint256"
        }
      ],
      "name": "SendMoneyToThirdAcc",
      "type": "event"
    },
    {
      "anonymous": false,
      "inputs": [
        {
          "indexed": false,
          "name": "",
          "type": "uint256"
        }
      ],
      "name": "Sum",
      "type": "event"
    },
    {
      "anonymous": false,
      "inputs": [
        {
          "indexed": false,
          "name": "amount",
          "type": "uint256"
        }
      ],
      "name": "LogCurrentAmount",
      "type": "event"
    },
    {
      "constant": true,
      "inputs": [],
      "name": "getContractBalance",
      "outputs": [
        {
          "name": "",
          "type": "uint256"
        }
      ],
      "payable": false,
      "stateMutability": "view",
      "type": "function"
    },
    {
      "constant": true,
      "inputs": [
        {
          "name": "someAddr",
          "type": "address"
        }
      ],
      "name": "getPersonBalance",
      "outputs": [
        {
          "name": "",
          "type": "uint256"
        }
      ],
      "payable": false,
      "stateMutability": "view",
      "type": "function"
    },
    {
      "constant": false,
      "inputs": [],
      "name": "getFirstAddrBal",
      "outputs": [
        {
          "name": "",
          "type": "uint256"
        }
      ],
      "payable": false,
      "stateMutability": "nonpayable",
      "type": "function"
    },
    {
      "constant": false,
      "inputs": [],
      "name": "getSecondAddrBal",
      "outputs": [
        {
          "name": "",
          "type": "uint256"
        }
      ],
      "payable": false,
      "stateMutability": "nonpayable",
      "type": "function"
    },
    {
      "constant": false,
      "inputs": [],
      "name": "getThirdAddrBal",
      "outputs": [
        {
          "name": "",
          "type": "uint256"
        }
      ],
      "payable": false,
      "stateMutability": "nonpayable",
      "type": "function"
    },
    {
      "constant": false,
      "inputs": [],
      "name": "getFirstAddr",
      "outputs": [
        {
          "name": "",
          "type": "address"
        }
      ],
      "payable": false,
      "stateMutability": "nonpayable",
      "type": "function"
    },
    {
      "constant": false,
      "inputs": [],
      "name": "getSecondAddr",
      "outputs": [
        {
          "name": "",
          "type": "address"
        }
      ],
      "payable": false,
      "stateMutability": "nonpayable",
      "type": "function"
    },
    {
      "constant": false,
      "inputs": [],
      "name": "getThirdAddr",
      "outputs": [
        {
          "name": "",
          "type": "address"
        }
      ],
      "payable": false,
      "stateMutability": "nonpayable",
      "type": "function"
    },
    {
      "constant": false,
      "inputs": [],
      "name": "payMoney",
      "outputs": [
        {
          "name": "",
          "type": "bool"
        }
      ],
      "payable": true,
      "stateMutability": "payable",
      "type": "function"
    },
    {
      "constant": false,
      "inputs": [
        {
          "name": "tempSum",
          "type": "uint256"
        }
      ],
      "name": "divideMoney",
      "outputs": [
        {
          "name": "",
          "type": "uint256"
        }
      ],
      "payable": true,
      "stateMutability": "payable",
      "type": "function"
    },
    {
      "constant": false,
      "inputs": [],
      "name": "split",
      "outputs": [
        {
          "name": "",
          "type": "bool"
        }
      ],
      "payable": false,
      "stateMutability": "nonpayable",
      "type": "function"
    }
  ],
  "bytecode": "0x608060405234801561001057600080fd5b5060405160608061062283398101604090815281516020830151919092015160008054600160a060020a03191633600160a060020a03908116919091179091558316151561005d57600080fd5b600160a060020a038216151561007257600080fd5b600160a060020a038116151561008757600080fd5b60018054600160a060020a03948516600160a060020a03199182161790915560028054938516938216939093179092556003805491909316911617905561054f806100d36000396000f3006080604052600436106100c45763ffffffff7c01000000000000000000000000000000000000000000000000000000006000350416630572600381146100c95780631dc1c5e3146100fc5780632e3555ff146101185780634ad074951461014957806351068a8f146101545780636395577b146101695780636f9fb98a1461017e57806383197ef0146101935780638a3cff3f146101aa5780638da5cb5b146101bf578063a9e235c8146101d4578063c08a7aaa146101e9578063f7654176146101fe575b600080fd5b3480156100d557600080fd5b506100ea600160a060020a0360043516610213565b60408051918252519081900360200190f35b610104610220565b604080519115158252519081900360200190f35b34801561012457600080fd5b5061012d61024b565b60408051600160a060020a039092168252519081900360200190f35b6100ea60043561025a565b34801561016057600080fd5b5061012d61029e565b34801561017557600080fd5b5061012d6102ad565b34801561018a57600080fd5b506100ea6102bc565b34801561019f57600080fd5b506101a86102ca565b005b3480156101b657600080fd5b506100ea6102f3565b3480156101cb57600080fd5b5061012d610303565b3480156101e057600080fd5b506100ea610312565b3480156101f557600080fd5b506100ea610322565b34801561020a57600080fd5b50610104610332565b600160a060020a03163190565b600034811061022e57600080fd5b34600160a060020a03331631101561024557600080fd5b50600190565b600254600160a060020a031690565b6040805182815290516000917fbe8396be439ff63ba2ec3820c0c8b49f52bbce98f8dea95fc95e13f224cc35e1919081900360200190a15060029004600481905590565b600354600160a060020a031690565b600154600160a060020a031690565b600160a060020a0330163190565b60005433600160a060020a039081169116146102e557600080fd5b600054600160a060020a0316ff5b600154600160a060020a03163190565b600054600160a060020a031681565b600354600160a060020a03163190565b600254600160a060020a03163190565b600061034730600160a060020a03163161025a565b5060045460408051918252517f2b2652f5ff8127fab6546b40146137c277bbf2402e6792bd20bf74277a1b69849181900360200190a160015433600160a060020a03908116911614156103b15761039f6004546103f1565b506103ab600454610457565b50610245565b60025433600160a060020a03908116911614156103d35761039f6004546104bd565b6103de6004546104bd565b506103ea6004546103f1565b5050600190565b600254604051600091600160a060020a03169083156108fc0290849084818181858888f150506040805186815290517f7e3c6d6f136876c119dd7c9bac4738fb21486829f20b504036c60f6a4699a6bd94509081900360200192509050a1506001919050565b600354604051600091600160a060020a03169083156108fc0290849084818181858888f150506040805186815290517f65f9eb25387541e37051e8a8edc3e78f37e07031833990cf0d668ca0a7d854a694509081900360200192509050a1506001919050565b600154604051600091600160a060020a03169083156108fc0290849084818181858888f150506040805186815290517f31de9dc49880ab281fbab791c3574d2a742aaef242725949d11053ec555e689594509081900360200192509050a15060019190505600a165627a7a72305820fdf1ad9bf101f0b3872388c5fb024af554f45b46d32da74d8c589ebfcccb72ff0029",
  "source": "pragma solidity ^0.4.4;\n\nimport './Destroyable.sol';\n\ncontract Splitter is Destroyable {\n\n\n    address private ownerAddress;\n    address private secondAddress;\n    address private thirdAddress;\n    uint private amount;\nconstructor(address address1,address address2, address address3)  {\nrequire(address1 != 0);\nrequire(address2 != 0);\nrequire(address3 != 0);\n\nownerAddress = address1;\nsecondAddress = address2;\nthirdAddress = address3;\n}\n\nfunction  getContractBalance () public view returns (uint) {\nreturn this.balance;\n}\n\nfunction getPersonBalance(address someAddr)public view returns (uint) {\nreturn someAddr.balance;\n}\n\nfunction getFirstAddrBal()public returns (uint){\nreturn ownerAddress.balance;\n}\nfunction getSecondAddrBal()public returns (uint){\nreturn secondAddress.balance;\n}\nfunction getThirdAddrBal()public returns (uint){\nreturn thirdAddress.balance;\n}\n\n\nfunction getFirstAddr()public returns (address){\nreturn ownerAddress;\n}\nfunction getSecondAddr()public returns (address){\nreturn secondAddress;\n}\nfunction getThirdAddr()public returns (address){\nreturn thirdAddress;\n}\nevent SendMoneyToFirstAcc(uint);\nfunction sendMoneyToFirstAcc(uint money)private returns (bool){\nownerAddress.send(money);\nSendMoneyToFirstAcc(money);\nreturn true;\n}\nevent SendMoneyToSecondAcc(uint);\nfunction sendMoneyToSecAcc(uint money)private returns (bool){\nsecondAddress.send(money);\nSendMoneyToSecondAcc(money);\nreturn true;\n}\nevent SendMoneyToThirdAcc(uint);\nfunction sendMoneyToThirdAcc(uint money)private returns (bool){\nthirdAddress.send(money);\nSendMoneyToThirdAcc(money);\nreturn true;\n}\n\n\n\nfunction payMoney () public payable returns (bool) {\nrequire(msg.value > 0); //avoid 0 value transfers\nrequire(msg.sender.balance >= msg.value); //avoid overspending\nreturn true;\n}\nevent Sum(uint);\nfunction divideMoney(uint tempSum) public payable returns (uint) {\nSum(tempSum);\namount = tempSum / 2 ;\nreturn amount;\n}\nevent LogCurrentAmount(uint amount);\n\nfunction split () public   returns (bool) {\ndivideMoney(this.balance);\nLogCurrentAmount(amount);\nif (msg.sender == ownerAddress){\nsendMoneyToSecAcc(amount);\nsendMoneyToThirdAcc(amount);\n}else if (msg.sender == secondAddress){\nsendMoneyToFirstAcc(amount);\nsendMoneyToThirdAcc(amount);\n}else {\nsendMoneyToFirstAcc(amount);\nsendMoneyToSecAcc(amount);\n}\nreturn true;\n}\n}",
  "sourcePath": "/root/IdeaProjects/Project1/contracts/Splitter.sol",
  "compiler": {
    "name": "solc",
    "version": "0.4.23+commit.124ca40d.Emscripten.clang"
  },
  "schemaVersion": "2.0.0",
  "updatedAt": "2018-05-11T13:15:54.525Z"
}